{
  "contractName": "Hodl",
  "abi": [
    {
      "anonymous": false,
      "inputs": [
        {
          "indexed": false,
          "internalType": "address",
          "name": "staker",
          "type": "address"
        },
        {
          "indexed": false,
          "internalType": "uint256",
          "name": "amount",
          "type": "uint256"
        }
      ],
      "name": "Staked",
      "type": "event"
    },
    {
      "anonymous": false,
      "inputs": [
        {
          "indexed": false,
          "internalType": "address",
          "name": "unstaker",
          "type": "address"
        },
        {
          "indexed": false,
          "internalType": "uint256",
          "name": "amount",
          "type": "uint256"
        }
      ],
      "name": "Unstaked",
      "type": "event"
    },
    {
      "inputs": [
        {
          "internalType": "address",
          "name": "",
          "type": "address"
        }
      ],
      "name": "addressToAmount",
      "outputs": [
        {
          "internalType": "uint256",
          "name": "",
          "type": "uint256"
        }
      ],
      "stateMutability": "view",
      "type": "function",
      "constant": true
    },
    {
      "inputs": [
        {
          "internalType": "address",
          "name": "",
          "type": "address"
        }
      ],
      "name": "addressToHodlTime",
      "outputs": [
        {
          "internalType": "uint256",
          "name": "",
          "type": "uint256"
        }
      ],
      "stateMutability": "view",
      "type": "function",
      "constant": true
    },
    {
      "inputs": [
        {
          "internalType": "uint256",
          "name": "hodltime",
          "type": "uint256"
        }
      ],
      "name": "stake",
      "outputs": [],
      "stateMutability": "payable",
      "type": "function",
      "payable": true
    },
    {
      "inputs": [],
      "name": "unstake",
      "outputs": [],
      "stateMutability": "nonpayable",
      "type": "function"
    }
  ],
  "bytecode": "0x608060405234801561001057600080fd5b5061070d806100206000396000f3fe60806040526004361061003f5760003560e01c80632def6620146100445780633c7e7d281461005b57806395dffa7114610098578063a694fc3a146100d5575b600080fd5b34801561005057600080fd5b506100596100f1565b005b34801561006757600080fd5b50610082600480360381019061007d9190610477565b6102c1565b60405161008f91906104bd565b60405180910390f35b3480156100a457600080fd5b506100bf60048036038101906100ba9190610477565b6102d9565b6040516100cc91906104bd565b60405180910390f35b6100ef60048036038101906100ea9190610504565b6102f1565b005b42600160003373ffffffffffffffffffffffffffffffffffffffff1673ffffffffffffffffffffffffffffffffffffffff1681526020019081526020016000205410610172576040517f08c379a00000000000000000000000000000000000000000000000000000000081526004016101699061058e565b60405180910390fd5b60008060003373ffffffffffffffffffffffffffffffffffffffff1673ffffffffffffffffffffffffffffffffffffffff16815260200190815260200160002054905060008060003373ffffffffffffffffffffffffffffffffffffffff1673ffffffffffffffffffffffffffffffffffffffff168152602001908152602001600020819055506000600160003373ffffffffffffffffffffffffffffffffffffffff1673ffffffffffffffffffffffffffffffffffffffff168152602001908152602001600020819055503373ffffffffffffffffffffffffffffffffffffffff166108fc829081150290604051600060405180830381858888f19350505050158015610284573d6000803e3d6000fd5b507f0f5bb82176feb1b5e747e28471aa92156a04d9f3ab9f45f28e2d704232b93f7533826040516102b69291906105bd565b60405180910390a150565b60006020528060005260406000206000915090505481565b60016020528060005260406000206000915090505481565b60003411610334576040517f08c379a000000000000000000000000000000000000000000000000000000000815260040161032b90610632565b60405180910390fd5b346000803373ffffffffffffffffffffffffffffffffffffffff1673ffffffffffffffffffffffffffffffffffffffff16815260200190815260200160002060008282546103829190610681565b9250508190555080426103959190610681565b600160003373ffffffffffffffffffffffffffffffffffffffff1673ffffffffffffffffffffffffffffffffffffffff168152602001908152602001600020819055507f9e71bc8eea02a63969f509818f2dafb9254532904319f9dbda79b67bd34a5f3d33346040516104099291906105bd565b60405180910390a150565b600080fd5b600073ffffffffffffffffffffffffffffffffffffffff82169050919050565b600061044482610419565b9050919050565b61045481610439565b811461045f57600080fd5b50565b6000813590506104718161044b565b92915050565b60006020828403121561048d5761048c610414565b5b600061049b84828501610462565b91505092915050565b6000819050919050565b6104b7816104a4565b82525050565b60006020820190506104d260008301846104ae565b92915050565b6104e1816104a4565b81146104ec57600080fd5b50565b6000813590506104fe816104d8565b92915050565b60006020828403121561051a57610519610414565b5b6000610528848285016104ef565b91505092915050565b600082825260208201905092915050565b7f596f757220686f646c2074696d652069736e2774206f76657220796574000000600082015250565b6000610578601d83610531565b915061058382610542565b602082019050919050565b600060208201905081810360008301526105a78161056b565b9050919050565b6105b781610439565b82525050565b60006040820190506105d260008301856105ae565b6105df60208301846104ae565b9392505050565b7f4d7573742062652067726561746572207468616e207a65726f00000000000000600082015250565b600061061c601983610531565b9150610627826105e6565b602082019050919050565b6000602082019050818103600083015261064b8161060f565b9050919050565b7f4e487b7100000000000000000000000000000000000000000000000000000000600052601160045260246000fd5b600061068c826104a4565b9150610697836104a4565b9250827fffffffffffffffffffffffffffffffffffffffffffffffffffffffffffffffff038211156106cc576106cb610652565b5b82820190509291505056fea26469706673582212206c4af7a395dfe436120351b8e9061c2ecb8e9547ddbd72651fceda4c8f597a8c64736f6c634300080a0033",
  "immutableReferences": {},
  "source": "//SPDX-License-Identifier: MIT\r\n\r\npragma solidity ^0.8.7;\r\n\r\ncontract Hodl {\r\n    mapping(address => uint256) public addressToAmount;\r\n    mapping(address => uint256) public addressToHodlTime;\r\n    event Staked(address staker, uint256 amount);\r\n    event Unstaked(address unstaker, uint256 amount);\r\n\r\n    function stake(uint256 hodltime) public payable {\r\n        require(msg.value > 0, \"Must be greater than zero\");\r\n        addressToAmount[msg.sender] += msg.value;\r\n        addressToHodlTime[msg.sender] = block.timestamp + hodltime;\r\n        emit Staked(msg.sender, msg.value);\r\n    }\r\n\r\n    function unstake() public {\r\n        require(addressToHodlTime[msg.sender] < block.timestamp, \"Your hodl time isn't over yet\");\r\n        uint256 withdraw = addressToAmount[msg.sender];\r\n        addressToAmount[msg.sender] = 0;\r\n        addressToHodlTime[msg.sender] = 0;\r\n        payable(msg.sender).transfer(withdraw);\r\n        emit Unstaked(msg.sender, withdraw);\r\n        \r\n\r\n    }\r\n}",
  "sourcePath": "D:\\Solidity Projects\\Hodl1\\contracts\\Hodl.sol",
  "compiler": {
    "name": "solc",
    "version": "0.8.10+commit.fc410830.Emscripten.clang"
  },
  "schemaVersion": "3.4.3",
  "updatedAt": "2021-11-28T15:55:01.042Z",
  "networkType": "ethereum",
  "devdoc": {
    "kind": "dev",
    "methods": {},
    "version": 1
  },
  "userdoc": {
    "kind": "user",
    "methods": {},
    "version": 1
  }
}